:0200000068296D
:1000060083160313981809280000032883125B0837
:040016009900080045
:0E001A000030831203138C1A0130F00008002E
:10002800831203131A08F100981C1C2818121816BA
:060038007108F000080051
:0E003E00831203132F088A002E088200080088
:10004C0083120313DA01580884000008D9005908F8
:10005C00003A03193B285908DB000320DA0A5A0836
:0C006C00580784000008D9002D28080067
:100078008312031386010D207008031947281420E2
:0A008800FF30860048283F280800DA
:1000920083120313D201D3013C207008D2003C200A
:1000A2007008D30041305202031C672837305202D5
:1000B200CE000430F0000030CF007008031966282B
:1000C200CE0DCF0D4E10FF3E5F2876283030520203
:1000D200CE000430F0000030CF00700803197628FB
:1000E200CE0DCF0D4E10FF3E6F284E08D20041308C
:1000F2005302031C822837305302D0000030D10053
:10010200872830305302D0000030D1005008520707
:0C011200F0007008D200FF3086000800EA
:10011E008316031398169030831298008316871750
:10012E00071383128C1E9E281A08F00098280800C8
:10013E0083120313D5014E0A84000008D00002304A
:10014E004E0784000008D1004E08840005300007D9
:10015E00F000F1010318F10A7008D2005008D40023
:10016E00D3015108D3040030D404D40CD30CD413CF
:10017E00D601D70154081F3C031DC7285308FF3C66
:10018E00031C582900305307F30054080318013E8E
:10019E00053EF4007308D3007408D4007408F00010
:1001AE00F1017008D0007308D100D501053052025C
:1001BE00F300F401031CF4037308F1007408F20059
:1001CE00F20CF10CF213721BF217F21FF328031C40
:1001DE00F328F10A0319F20A8030F000803072061B
:1001EE007002031DFC287108550203185829550882
:1001FE00F200F301F20DF30D721004307207F000ED
:10020E0073080318013EF10070084E0784000008C1
:10021E00F40005307207F00073080318013EF10078
:10022E0070084E0784000008F1007108D700D6014F
:10023E007408D6040030D7047108283A031D2D29FE
:10024E000030D60705300318013ED70751080317B3
:10025E008D000313500803178F000313560803175E
:10026E008C0003135708F000F101700803178E007D
:10027E0083168C170C158B1355308D00AA308D00FC
:10028E008C14000000008C1C4D294A298B178312F8
:10029E0003135108FF3A031D5529D00AD10AD50A76
:0A02AE00DD282530D80026200800C6
:1002B8001F208A110A128000840AAE0A0319AF0AA5
:0802C800F003031D5C2908008E
:1002D000533083120313A0005430A1005230A20007
:1002E0000A30A300A4014F30A5004B30A6000A300D
:1002F000A700A8014230A9004130AA004430AB0059
:100300000A30AC00AD01B101B201B301B401B501D5
:10031000B601B701B801B901BA01BB01BC01BD0109
:10032000BE01BF01C001C101C201C301C401C501B9
:10033000C601C701C801C901CA01CB01CC0183169E
:1003400086011930990018158F20FF30860006307D
:10035000FB001330FC00AD30FD00FD0BAD29FC0BA4
:10036000AD29FB0BAD29000000008601CC010D205A
:1003700070080319172A3C207008CC0070083A3A1C
:10038000031D172A49207008B1007008CC00053001
:100390007007CA000130CB004A084B020318DF295E
:1003A0004B08313ECD0049204D0884007008800084
:1003B0004B08313E84000008CC07CB0ACC29013021
:1003C0004A02F000F101031CF1037008313EF20013
:1003D0007208840000084C02F0007008CC00F0099C
:1003E000700AF1007108CC007208840071080006E0
:1003F0000130031D0030F0007008CC0070080319B4
:10040000072A3130CE004A08CF009F200A2A29301F
:10041000D800262086013108031D172A4C0803192D
:10042000172AFF3086002030D8002620002DB6295C
:02043000182A88
:04400E00F22F000786
:00000001FF
