:0200000049298C
:100006008316031398180928000003288312590839
:040016009900080045
:0E001A000030831203138C1A0130F00008002E
:10002800831203131A08F100981C1C2818121816BA
:060038007108F000080051
:0E003E00831203132F088A002E088200080088
:10004C0083120313D801560884000008D700570800
:10005C00003A03193B285708D9000320D80A58083E
:0C006C00560784000008D7002D2808006B
:100078008312031386010D207008031947281420E2
:0A008800FF30860048283F280800DA
:1000920083120313D201D3013C207008D2003C200A
:1000A2007008D30041305202031C672837305202D5
:1000B200CE000430F0000030CF007008031966282B
:1000C200CE0DCF0D4E10FF3E5F2876283030520203
:1000D200CE000430F0000030CF00700803197628FB
:1000E200CE0DCF0D4E10FF3E6F284E08D20041308C
:1000F2005302031C822837305302D0000030D10053
:10010200872830305302D0000030D1005008520707
:0C011200F0007008D200FF3086000800EA
:10011E008316031398169030831298008316871750
:10012E00071383128C1E9E281A08F00098280800C8
:10013E0083120313D3014E0A84000008CF0002304D
:10014E004E0784000008D0004F08D200D10150089D
:10015E00D1040030D204D20CD10CD213D401D5016B
:10016E0052081F3C031DBD285108FF3C031C3929B2
:10017E0050305107F30052080318013E023EF400BE
:10018E007308D1007408D2007408F000F1017008F1
:10019E00CF007308D000D3014E0884000008F2008F
:1001AE007208F100F10CF11371085302031839298A
:1001BE005308F200F301F20DF30D721004307207C2
:1001CE00F00073080318013EF10070084E0784001A
:1001DE000008F40005307207F00073080318013EA2
:1001EE00F10070084E0784000008F1007108D50078
:1001FE00D4017408D4040030D5047108283A031DC4
:10020E000E295030D40702300318013ED50750088E
:10021E0003178D0003134F0803178F0003135408A1
:10022E0003178C0003135508F000F1017008031733
:10023E008E0083168C170C158B1355308D00AA303B
:10024E008D008C14000000008C1C2E292B298B177E
:10025E00831203135008FF3A031D3629CF0AD00A22
:0C026E00D30AD3282530D6002620080033
:10027A001F208A110A128000840AAE0A0319AF0AE3
:08028A00F003031D3D290800EB
:10029200423083120313A0004130A1004430A20077
:1002A2000A30A300A4014F30A5004B30A6000A304B
:1002B200A700A8015330A9005430AA005230AB0065
:1002C2000A30AC00AD01B101B201B301B401B50114
:1002D200B601B701B801B901BA01BB01BC01BD0148
:1002E200BE01BF01C001C101C201C301C401C501F8
:1002F200C601C701C801C901CA01CB01CC018316DD
:1003020086011930990018158F208601CC010D2025
:1003120070080319DF293C207008CC0070083A3AB3
:10032200031DDF2949207008B1007008CC00053098
:100332007007CA000130CB004A084B020318B029EB
:100342004B08313ECD0049204D08840070088000E2
:100352004B08313E84000008CC07CB0A9D290130AE
:100362004A02F000F101031CF1037008313EF20071
:100372007208840000084C02F0007008CC00F009FA
:10038200700AF1007108CC0072088400710800063E
:10039200031DCF293130CE009F20D2292030D60034
:1003A200262086013108031DDF294C080319DF29A5
:1003B200FF3086002930D6002620502A8729E029DE
:04400E00F22F000786
:00000001FF
