:02000000DB28FB
:10000600831203131A08F100981C0B2818121816ED
:060016007108F000080073
:10001C00831603139818142800000E28831258080E
:04002C00990008002F
:0E0030000030831203138C1A0130F000080018
:10003E0083120313D701550884000008D600560812
:10004E00003A031934285608D8000E20D70A57084C
:0C005E00550784000008D6002628080082
:10006A008316031398169030831298008316871705
:10007A00071383128C1E44281A08F0003E28080031
:10008A0083120313860118207008031950280320CD
:0A009A00FF308600512848280800B6
:0E00A4008312031339088A003808820008000E
:1000B2004130831203135502031C63283730550263
:0C00C200F000662830305502F000080005
:1000CE0083120313D4015308840004300007F00098
:1000DE00F1010318F10A7008F300D40173085402F9
:1000EE00031880285408530784000008F207D40A26
:1000FE0075287209F000700AF1007108F200730899
:10010E0053078400710800060130031D0030F00013
:08011E007008D400F201080092
:1001260083120313D30145207008D50059207008A7
:10013600D300D30D5310D30D5310D30D5310D30D3D
:10014600531045207008D50059205308F007700851
:08015600D300FF308600080011
:10015E0052208A110A128000840AB80A0319B90AB9
:08016E00F003031DAF28080097
:100176008316031789018601FF3083120313860055
:10018600193083169900181535200630FB001330F8
:10019600FC00AD30FD00FD0BCE28FC0BCE28FB0B82
:1001A600CE280000000086012030D5001F20080060
:1001B6004D3083120313A0007230A1004230A2001A
:1001C6007530A3007230A4006E30A5006530A6001D
:1001D6007230A7002030A8005230A9006530AA006E
:1001E6006130AB006430AC007930AD00AE014F3009
:1001F600AF004B30B0000A30B100B2014230B3005C
:100206004130B4004430B5000A30B600B701BB0136
:10021600BC01BD01BE01BF01C001C101C201C301D4
:10022600C401C501C601C701C801C901CA01CB0184
:10023600CC01CD01CE01CF01D001D101BB201820C8
:10024600700803194F29452070083A3A031D4F29B3
:1002560093207008BB0005307007D0000130D10034
:10026600500851020318412951083B3ED200932001
:100276005208840070088000D10A33293B30D3002D
:100286006720700803194B292F30D5001F204E29EF
:0C0296003330D5001F208601222950299A
:04400E00F22F000786
:00000001FF
