:02000000A7282F
:10000600831203131A08F100981C0B2818121816ED
:060016007108F000080073
:0E001C000030831203138C1A0130F00008002C
:10002A008312031386010E20700803192028032067
:0A003A00FF30860021281828080076
:0E0044008312031328088A0027088200080090
:100052004130831203134502031C33283730450213
:0C006200F000362830304502F0000800A5
:10006E008316031398169030831298008316871701
:10007E00071383128C1E46281A08F0004028080029
:10008E008316031398184D2800004728831245083D
:04009E0099000800BD
:1000A20083120313C20115207008C50029207008AD
:1000B200C200C20D4210C20D4210C20D4210C20D4A
:1000C200421015207008C50029204208F007700868
:0800D200C200FF3086000800A7
:1000DA0083120313C401420884000008C3004308C2
:1000EA00003A031982284308C5004720C40A440875
:0C00FA00420784000008C30074280800BE
:1001060022208A110A128000840AA70A0319A80A63
:08011600F003031D832808001B
:10011E008312031386018316031789018601193092
:10012E0003139900181537200230FC004B30FD00E8
:10013E00FD0B9F28FC0B9F28FF30860086010800D0
:10014E00493083120313A0006E30A1006930A20063
:10015E006330A3006930A4006F30A500A601AA0188
:10016E00AB01AC01AD01AE01AF01B001B101B20105
:10017E00B301B401B501B601B701B801B901BA01B5
:10018E00BB01BC01BD01BE01BF01C0018F20A90191
:10019E00033029020318E6280630FB001330FC005A
:1001AE00AD30FD00FD0BD928FC0BD928FB0BD9284F
:1001BE00000000002030C2006D20A90ACF280E20BA
:1001CE00700803193F29152070083A3A031D3D297E
:1001DE0051207008AA000530F0077008BF007008A3
:1001EE00C50047200130A9003F082902031809293C
:1001FE0029082A3EC1005120410884007008800061
:10020E00A90AFB28A90101303F02F100F201031CEB
:10021E00F2038030F000803072067002031D19293F
:10022E00710829020318292929082A3EF0007008AE
:10023E0084000008C007700884000008C50047202D
:10024E00A90A0A29C009C00A01303F02F000F101D3
:10025E00031CF10370082A3E84000008C5004720E5
:10026E00FF30C50047204008C5004720C001860169
:04027E00E628402905
:04400E00F22F000786
:00000001FF
