:02000000E128F5
:100006008316031398180928000003288312300862
:040016009900080045
:0E001A000030831203138C1A0130F00008002E
:10002800831203131A08F100981C1C2818121816BA
:060038007108F000080051
:10003E008312031386010D20700803193128142032
:10004E007008AF00FF3086007008B00003202F0844
:08005E00F000322822280800FE
:100066008316031398169030831298008316871709
:10007600071383128C1E42281A08F0003C28080039
:0E0086008312031328088A002708820008004E
:100094004130831203132F02031C53283730AF025D
:0C00A40055283030AF022F08F000080093
:1000B00083120313AC011F207008AF004A207008A0
:1000C000AC00AC0D2C10AC0D2C10AC0D2C10AC0DEC
:1000D0002C101F207008AF004A202C08F007700871
:0800E000AC00FF3086000800AF
:1000E80083120313AE012C0884000008AD002D080C
:1000F800003A031989282D08B0000320AE0A2E08FB
:0C0108002C0784000008AD007B280800D4
:1001140083120313AD01AE012C0884000008F00023
:100124002C0A840000087007AD0002302C078400FC
:100134000008AD0703302C0784000008AD07AE01AA
:100144002C0884000008F10071082E020318B4285A
:1001540004302C07F0002E08700784000008AD0757
:10016400AE0AA2282D09F000F00A7008AD0070084C
:06017400B00003200800AA
:10017A008312031386018316031789018601193036
:10018A0003139900181533200230FC004B30FD0090
:10019A00FD0BCD28FC0BCD28FF3086008601080018
:1001AA0043208A110A128000840AA70A0319A80A9E
:0801BA00F003031DD528080025
:1001C200493083120313A0006E30A1006930A200EF
:1001D2006330A3006930A4006F30A500A601BD20E2
:1001E200AA0103302A02031809290630FB00133042
:1001F200FC00AD30FD00FD0BFC28FC0BFC28FB0BCA
:10020200FC28000000002030AC007420AA0AF2286A
:100212000D207008031952291F2070083A3A031D55
:1002220051292908AB0058202B088400700880004F
:10023200290AAB0058202B08840070088000023085
:100242002907AB0058202B08840070088000033077
:100252002907AB0058202B08840070088000AA01EF
:10026200290884000008F10071082A0203184629AF
:1002720004302907F0002A087007AB0058202B0829
:10028200840070088000AA0A312944302907AB0093
:1002920058202B088400700880002908AC008A20AE
:0602A20086010929532921
:04400E00F22F000786
:00000001FF
