:02000000DF28F7
:0E0006000030831203138C1A0130F000080042
:10001400831203131A08F100981C122818121816D8
:060024007108F000080065
:10002A004130831203132F02031C1E283730AF02FC
:0C003A0020283030AF022F08F000080032
:0E0046008312031328088A002708820008008E
:1000540083120313860103207008031935280A202C
:0A006400FF30860036282D28080022
:10006E008316031398169030831298008316871701
:10007E00071383128C1E46281A08F0004028080029
:10008E008316031398184D280000472883122F0853
:04009E0099000800BD
:1000A20083120313AC012A207008AF0015207008D8
:1000B200AC00AC0D2C10AC0D2C10AC0D2C10AC0DFA
:1000C2002C102A207008AF0015202C08F0077008A9
:1000D200AC007008AF004720FF3086002C08F0000B
:0200E200080014
:1000E40083120313AE012C0884000008AD002D0810
:1000F400003A031987282D08AF004720AE0A2E08BE
:0C0104002C0784000008AD0079280800DA
:1001100083120313860183160317890186011930A0
:1001200003139900181537200230FC004B30FD00F6
:10013000FD0B9828FC0B9828FF30860086010800EC
:1001400083120313AD01AE012C0884000008F000F7
:100150002C0A840000087007AD0002302C078400D0
:100160000008AD0703302C0784000008AD07AE017E
:100170002C0884000008F10071082E020318CA2818
:1001800004302C07F0002E08700784000008AD072B
:10019000AE0AB8282D09F000F00A7008AD0070080A
:0601A000AF00472008003B
:1001A60023208A110A128000840AA70A0319A80AC2
:0801B600F003031DD32808002B
:1001BE00493083120313A0006E30A1006930A200F3
:1001CE006330A3006930A4006F30A500A60188201B
:1001DE00AA0103302A02031807290630FB00133048
:1001EE00FC00AD30FD00FD0BFA28FC0BFA28FB0BD2
:1001FE00FA28000000002030AC007220AA0AF02875
:10020E0003207008031950292A2070083A3A031D5A
:10021E004F292908AB0051202B088400700880005C
:10022E00290AAB0051202B08840070088000023090
:10023E002907AB0051202B08840070088000033082
:10024E002907AB0051202B08840070088000AA01FA
:10025E00290884000008F10071082A0203184429B5
:10026E0004302907F0002A087007AB0051202B0834
:10027E00840070088000AA0A2F2944302907AB0099
:10028E0051202B088400700880002908AC00A020A3
:06029E0086010729512929
:04400E00F22F000786
:00000001FF
