:02000000B52821
:10000600831203131A08F100981C0B2818121816ED
:060016007108F000080073
:10001C008312031386010230FC004B30FD00FD0BF4
:10002C001528FC0B152803207008B500FF3086003E
:10003C000230FC004B30FD00FD0B2228FC0B22286B
:06004C003508F000080079
:100052004130831203133502031C32283730B502B4
:0C00620034283030B5023508F0000800EA
:10006E008316031398169030831298008316871701
:10007E00071383128C1E46281A08F0004028080029
:0E008E00831203132E088A002D08820008003A
:10009C00831603139818542800004E288312350831
:0400AC0099000800AF
:0E00B0000030831203138C1A0130F000080098
:1000BE0083120313B401320884000008B30033081E
:1000CE00003A031974283308B5004E20B40A3408D8
:0C00DE00320784000008B3006628080008
:1000EA0083120313B2010E207008B500292070088C
:1000FA00B200B20D3210B20D3210B20D3210B20D82
:10010A0032100E207008B50029203208F007700856
:08011A00B200FF30860008006E
:10012200831203138601831603178901860119308E
:1001320003139900181537200230FC004B30FD00E4
:10014200FD0BA128FC0BA128FF30860086010800C8
:1001520047208A110A128000840AAD0A0319AE0AE6
:08016200F003031DA9280800A9
:10016A00533083120313A0007430A1006130A2003F
:10017A007230A3007430A400A5014930A6006E3085
:10018A00A7006930A8006330A9006930AA006F305F
:10019A00AB00AC019120B001033030020318E8280B
:1001AA000630FB001330FC00AD30FD00FD0BDB28F0
:1001BA00FC0BDB28FB0BDB28000000002630B2001A
:1001CA005F20B00AD12858207008031943290E204D
:1001DA0070083A3A031D42292030B2005F202F08E6
:1001EA00B100752031088400700880002F0884004F
:1001FA000008B5004E202F0AB1007520310884008E
:10020A00700880002F0A84000008B5004E200230D2
:10021A002F07B10075203108840070088000023071
:10022A002F0784000008B5004E2003302F07B100C5
:10023A007520310884007008800003302F0784007D
:10024A000008B5004E20B0012F0884000008F10014
:10025A0071083002031834297520B00A292905309B
:10026A002F07B1007520310884007008800005301E
:10027A002F0784000008B5004E208601E82844298B
:04400E00F22F000786
:00000001FF
