:020000001729BE
:10000600831603139818092800000328831257083B
:040016009900080045
:0E001A000030831203138C1A0130F00008002E
:10002800831203131A08F100981C1C2818121816BA
:060038007108F000080051
:10003E008312031386010D20700803192A28142039
:0A004E00FF3086002B28222808004E
:0E005800831203132F088A002E08820008006E
:1000660083120313D601540884000008D5005508EE
:10007600003A031948285508D7000320D60A56081F
:0C008600540784000008D5003A28080048
:100092004130831203135402031C53283730540295
:0C00A200F000562830305402F000080036
:1000AE0083120313CE011F207008D400492070085C
:1000BE00CE00CE0D4E10CE0D4E10CE0D4E10CE0DDE
:1000CE004E101F207008D40049204E08F00770080B
:0800DE00CE00FF30860008008F
:1000E60083120313D3014E0A84000008F400740837
:1000F600CF0002304E0784000008F3007308D000DA
:100106007408F100F00173087004F2007108F3003E
:100116000030F3047208F4007308F500F50CF40CD3
:10012600F5137408D1007508D2007508F000F101C6
:100136007008CF007408D000FF30860000307506C6
:10014600031DA728003074060319B32852081F3C64
:10015600031DAF285108FF3C031CB328F001B52846
:100166000130F0007008031D0729D3014E088400F2
:100176000008F2007208F100F10CF1137108530245
:1001860003180729500803178D0003134F08031798
:100196008F0003135308F200F301F20DF30D7210F2
:1001A60004307207F00073080318013EF10070086E
:1001B6004E078400000803178C0005307207F00014
:1001C60073080318013EF100700803134E078400FC
:1001D600000803178E0083168C170C158B135530E9
:1001E6008D00AA308D008C14000000008C1CFC28A9
:1001F600F9288B17831203135008FF3A031D0429AD
:10020600CF0AD00AD30AB9282530D40033200800F3
:100216002C208A110A128000840AAE0A0319AF0A3A
:08022600F003031D0B29080081
:10022E00423083120313A0004130A1004430A200DB
:10023E000A30A300A4014F30A5004B30A6000A30AF
:10024E00A700A8015330A9005430AA005230AB00C9
:10025E000A30AC00AD01B101B201B301B401B50178
:10026E00B601B701B801B901BA01BB01BC01BD01AC
:10027E00BE01BF01C001C101C201C301C401C5015C
:10028E00C601C701C801C901CA01CB01CC01831641
:10029E00860183128601CC010D2070080319BC293A
:1002AE001F207008CC0070083A3A031DBC29CC01FF
:1002BE0057207008B10005307007CA000130CB001E
:1002CE004A084B02031875294B08313ECD005720C2
:1002DE004D08840070088000CB0A6729CB010130DD
:1002EE004A02F100F201031CF2038030F00080306C
:1002FE0072067002031D852971084B0203188E29A0
:10030E004B08313E84000008CC07CB0A76294C09F5
:10031E00F000700AF2007208CC0001304A02F000C0
:10032E00F101031CF1037008313E840072080006CF
:10033E000130031D0030F0007008CC007008031966
:10034E00AC293130CE007320AF292030D4003320B9
:10035E0086013108031DBC294C080319BC29FF3046
:0E036E0086002930D4003320002D5229BD29ED
:04400E00F22F000786
:00000001FF
