:02000000732962
:100006008316031398180928000003288312620830
:040016009900080045
:0E001A000030831203138C1A0130F00008002E
:10002800831203131A08F100981C1C2818121816BA
:060038007108F000080051
:10003E004130831203135F02031C292837305F02FD
:0C004E00F0002C2830305F02F0000800A9
:10005A008316031398169030831298008316871715
:10006A00071383128C1E3C281A08F0003628080051
:10007A008312031386010D207008031948281420DF
:0A008A00FF308600492840280800D6
:0E009400831203133E088A003D088200080014
:1000A20083120313E1015F0884000008E000600886
:1000B200003A031966286008E2000320E10A610899
:0C00C2005F0784000008E00058280800D8
:1000CE0083120313DE01590A84000008F400740839
:1000DE00DA000230590784000008F3007308DB00D1
:1000EE007408F100F00173087004F2007108F30057
:1000FE000030F3047208F4007308F500F50CF40CEC
:10010E00F5137408DC007508DD007508F000F101C8
:10011E007008DA007408DB00FF30860000307506C8
:10012E00031D9B28003074060319A7285D081F3C89
:10013E00031DA3285C08FF3C031CA728F001A92877
:10014E000130F0007008031DFB28DE015908840001
:10015E000008F2007208F100F10CF11371085E0252
:10016E000318FB285B0803178D0003135A080317A7
:10017E008F0003135E08F200F301F20DF30D7210FF
:10018E0004307207F00073080318013EF100700886
:10019E0059078400000803178C0005307207F00021
:1001AE0073080318013EF100700803135907840009
:1001BE00000803178E0083168C170C158B13553001
:1001CE008D00AA308D008C14000000008C1CF028CD
:1001DE00ED288B17831203135B08FF3A031DF828D3
:1001EE00DA0ADB0ADE0AAD283930DF0051200800BA
:1001FE0083120313DA015908840004300007F0005B
:10020E00F1010318F10A7008F300DA0173085A02BB
:10021E00031818295A08590784000008F207DA0A49
:10022E000D297209F000700AF1007108F2007308CE
:10023E0059078400710800060130031D0030F000DC
:08024E007008DA00F20108005B
:1002560083120313D9013D207008DF001F207008A8
:10026600D900D90D5910D90D5910D90D5910D90DDC
:1002760059103D207008DF001F205908F00770084C
:08028600D900FF3086000800DA
:10028E008316031789018601FF308312031386003C
:10029E0019308316990018152D200630FB001330E7
:1002AE00FC00AD30FD00FD0B5A29FC0B5A29FB0B4F
:1002BE005A290000000086012030DF00512008007E
:1002CE004A208A110A128000840ABD0A0319BE0A46
:0802DE00F003031D672908006D
:1002E6004D3083120313A0007230A1004230A200E9
:1002F6007530A3007230A4006E30A5006530A600EC
:100306007230A7002030A8005230A9006530AA003C
:100316006130AB006430AC007930AD00AE014230E4
:10032600AF004130B0004430B1000A30B200B30132
:100336005330B4005430B5005230B6000A30B7001E
:10034600B8014F30B9004B30BA000A30BB00BC01CF
:10035600C101C201C301C401C501C601C701C8016B
:10036600C901CA01CB01CC01CD01CE01CF01D0011B
:10037600D101D201D301D401D501D601D70147213C
:100386000D2070080319FE293D2070083A3A031D16
:10039600FE292B217008C10005307007D6000130F8
:1003A600D700560857020318E2295708413ED800DD
:1003B6002B215808840070088000D70AD4294130C0
:1003C600D900FF207008C00070080319EE294130DB
:1003D600D9006720F1292F30DF005120860141081E
:1003E600031DFE2940080319FE29FF30860034301C
:0A03F600DF005120002DC329FF296C
:04400E00F22F000786
:00000001FF
