:02000000532982
:1000060083160313981809280000032883125A0838
:040016009900080045
:0E001A000030831203138C1A0130F00008002E
:10002800831203131A08F100981C1C2818121816BA
:060038007108F000080051
:10003E004130831203135702031C2928373057020D
:0C004E00F0002C2830305702F0000800B1
:10005A008316031398169030831298008316871715
:10006A00071383128C1E3C281A08F0003628080051
:10007A008312031386010D207008031948281420DF
:0A008A00FF308600492840280800D6
:0E0094008312031339088A003808820008001E
:1000A20083120313D901570884000008D8005808A6
:1000B200003A031966285808DA000320D90A5908B9
:0C00C200570784000008D80058280800E8
:1000CE0083120313D601530A84000008F400740847
:1000DE00D4000230530784000008F3007308D500E3
:1000EE007408F100F00173087004F2007108F30057
:1000FE000030F3047208F4007308F500F50CF40CEC
:10010E00F5137508F000F1017008D4007408D500DD
:10011E00FF308600D60153088400000856020318EB
:10012E00DB285508FF3A031D9D28D40AD50A550829
:10013E0003178D000313540803178F00031356087B
:10014E00F200F301F20DF30D721005307207F0009C
:10015E0073080318013EF10070085307840000086D
:10016E0003178C0004307207F00073080318013E69
:10017E00F1007008031353078400000803178E0064
:10018E0083168C170C158B1355308D00AA308D00ED
:10019E008C14000000008C1CD528D2288B1702303E
:1001AE0083120313D60792283430D700512008004B
:1001BE0083120313D4015308840004300007F000A7
:1001CE00F1010318F10A7008F300D4017308540208
:1001DE000318F8285408530784000008F207D40ABD
:1001EE00ED287209F000700AF1007108F200730830
:1001FE0053078400710800060130031D0030F00023
:08020E007008D400F2010800A1
:1002160083120313D3013D207008D7001F207008F6
:10022600D300D30D5310D30D5310D30D5310D30D4C
:1002360053103D207008D7001F205308F0077008A0
:08024600D300FF308600080020
:10024E008316031789018601FF308312031386007C
:10025E0019308316990018152D200630FB00133027
:10026E00FC00AD30FD00FD0B3A29FC0B3A29FB0BCF
:10027E003A290000000086012030D70051200800E6
:10028E004A208A110A128000840AB80A0319B90A90
:08029E00F003031D47290800CD
:1002A6004D3083120313A0007230A1004230A20029
:1002B6007530A3007230A4006E30A5006530A6002C
:1002C6007230A7002030A8005230A9006530AA007D
:1002D6006130AB006430AC007930AD00AE01423025
:1002E600AF004130B0004430B1000A30B200B30173
:1002F6004F30B4004B30B5000A30B600B701BB0131
:10030600BC01BD01BE01BF01C001C101C201C301E3
:10031600C401C501C601C701C801C901CA01CB0193
:10032600CC01CD01CE01CF01D001D10127210D2075
:1003360070080319C7293D2070083A3A031DC729DA
:100346000B217008BB0005307007D0000130D100CA
:10035600500851020318B92951083B3ED2000B211F
:100366005208840070088000D10AAB293B30D300C4
:10037600DF2070080319C3293B30D3006720C62944
:0C0386002F30D700512086019A29C82989
:04400E00F22F000786
:00000001FF
