:020000005E2977
:100006008316031398180928000003288312590839
:040016009900080045
:0E001A000030831203138C1A0130F00008002E
:10002800831203131A08F100981C1C2818121816BA
:060038007108F000080051
:0E003E008312031339088A0038088200080074
:10004C0083120313D701550884000008D600560804
:10005C00003A03193B285608D9000320D70A570841
:0C006C00550784000008D6002D2808006D
:1000780083120313560803178D000313550803173B
:100088008F000313580803178C000313570803172E
:100098008E0083168C170C158B1355308D00AA30E3
:1000A8008D008C14000000008C1C5B2858288B17CE
:0200B80008003E
:1000BA0083160313981690308312980083168717B5
:1000CA00071383128C1E6C281A08F0006628080091
:1000DA008312031386010D2070080319782814204F
:0A00EA00FF30860079287028080016
:1000F4004130831203135502031C84283730550200
:0C010400F000872830305502F0000800A1
:1001100083120313D4015308840004300007F00055
:10012000F1010318F10A7008F300D40173085402B6
:100130000318A1285408530784000008F207D40AC2
:1001400096287209F000700AF1007108F200730835
:1001500053078400710800060130031D0030F000D1
:080160007008D400F201080050
:1001680083120313D3016D207008D5007A2070081C
:10017800D300D30D5310D30D5310D30D5310D30DFB
:1001880053106D207008D5007A205308F0077008C6
:08019800D300FF3086000800CF
:1001A00083120313D401FF308600D4015308840066
:1001B0000008540203182D290230FC004B30FD00CA
:1001C000FD0BE028FC0BE028530A84000008D50052
:1001D0000230530784000008D60005305407F000B1
:1001E000F1010318F10A7008530784000008D700D2
:1001F00004305407F000F1010318F10A70085307A6
:1002000084000008D8003C200230831203135307F7
:1002100084000008FF3A031D1729530AF1007108F2
:100220008400000AF0007108840070088000023029
:100230005307F10071088400000AF000710884007F
:10024000700880000230FC004B30FD00FD0B2629B9
:10025000FC0B26290230D407D628D4012530D5003E
:04026000262008004C
:100264001F208A110A128000840AB80A0319B90AE5
:08027400F003031D322908000C
:10027C008316031789018601FF308312031386004E
:10028C0019308316990018155D200630FB001330C9
:10029C00FC00AD30FD00FD0B5129FC0B5129FB0B73
:1002AC0051290000000086012930D50026200800C5
:1002BC00423083120313A0004130A1004430A2004D
:1002CC000A30A300A4014F30A5004B30A6000A3021
:1002DC00A700A8014D30A9007230AA004230AB0033
:1002EC007530AC007230AD006E30AE006530AF00D2
:1002FC007230B0002030B1005230B2006530B30023
:10030C006130B4006430B5007930B600B701BB0180
:10031C00BC01BD01BE01BF01C001C101C201C301CD
:10032C00C401C501C601C701C801C901CA01CB017D
:10033C00CC01CD01CE01CF01D001D1013E210D2048
:10034C0070080319E5296D2070083A3A031DE52958
:10035C00B4207008BB0005307007D0000130D1000C
:10036C00500851020318C42951083B3ED200B42056
:10037C005208840070088000D10AB6293B30D300A3
:10038C00882070080319CE293B30D300D020D12906
:10039C002030D5002620D101D1015008510203187C
:1003AC00E32951083B3E84000008D9000320510882
:1003BC003B3E84008001D10AD329D1018601A529B5
:0203CC00E62920
:04400E00F22F000786
:00000001FF
