:02000000A02935
:100006008316031398180928000003288312590839
:040016009900080045
:0E001A000030831203138C1A0130F00008002E
:10002800831203131A08F100981C1C2818121816BA
:060038007108F000080051
:0E003E008312031339088A0038088200080074
:10004C008316031398169030831298008316871723
:10005C00071383128C1E35281A08F0002F2808006D
:10006C008312031386010D207008031941281420F4
:0A007C00FF308600422839280800F2
:100086004130831203135502031C4D2837305502A5
:0C009600F000502830305502F000080047
:1000A20083120313D701550884000008D6005608AE
:1000B200003A031966285608D9000320D70A5708C0
:0C00C200550784000008D60058280800EC
:1000CE0083120313550803178F00031356080317E3
:1000DE008D008E018C0183168C170C14000000000D
:1000EE000C1C7A28772883120F080313D9000320DB
:1000FE0003170D080313D900032003170E0803136B
:10010E00D900032003170C080313D900032008009D
:10011E0083120313550803178F0003135608031792
:10012E008D000313570803178E0003135808031787
:10013E008C000F080313D900032003170D080313B7
:10014E00D900032003170E080313D9000320031749
:10015E000C080313D9000320831603178C170C15F4
:10016E008B1355308D00AA308D008C1400000000CA
:0A017E008C1CC228BF288B17080054
:1001880083120313D4015308840004300007F000DD
:10019800F1010318F10A7008F300D401730854023E
:1001A8000318DD285408530784000008F207D40A0E
:1001B800D2287209F000700AF1007108F200730881
:1001C80053078400710800060130031D0030F00059
:0801D8007008D400F2010800D8
:1001E00083120313D30136207008D5004320700812
:1001F000D300D30D5310D30D5310D30D5310D30D83
:10020000531036207008D50043205308F0077008BB
:08021000D300FF308600080056
:1002180083120313D401FF3086002F30D5005120FC
:10022800D4015308840000085402031872290330CB
:10023800FD00FD0B1D29530A84000008D50002307B
:10024800530784000008D60005305407F000F10178
:100258000318F10A7008530784000008D700043017
:100268005407F000F1010318F10A700853078400DD
:100278000008D8008F200330FD00FD0B41298312B0
:100288000313530A84000008D50002305307840082
:100298000008D60067200330FD00FD0B512902300D
:1002A800530784000008FF3A031D6429530AF1002C
:1002B80071088400000AF00071088400700880004A
:1002C80002305307F10071088400000AF000710839
:1002D8008400700880000230D4071529D401080072
:1002E8008316031789018601FF30831203138600E2
:1002F800193083169900181526200630FB00133094
:10030800FC00AD30FD00FD0B8729FC0B8729FB0B9A
:1003180087290000000086012030D5005120080000
:100328001F208A110A128000840AB80A0319B90A20
:08033800F003031D94290800E5
:100340004D3083120313A0007230A1004230A2008E
:100350007530A3007230A4006E30A5006530A60091
:100360007230A7002030A8005230A9006530AA00E2
:100370006130AB006430AC007930AD00AE014F307D
:10038000AF004B30B0000A30B100B2014230B300D0
:100390004130B4004430B5000A30B600B701BB01AB
:1003A000BC01BD01BE01BF01C001C101C201C30149
:1003B000C401C501C601C701C801C901CA01CB01F9
:1003C000CC01CD01CE01CF01D001D10174210D208E
:1003D00070080319212A362070083A3A031D212A91
:1003E000F0207008BB0005307007D0000130D1004C
:1003F000500851020318062A51083B3ED200F02053
:100400005208840070088000D10AF8293B30D300DC
:10041000C42070080319102A3B30D3000C21132A82
:100420003330D5005120D101D101500851020318B9
:100430001F2A51083B3E84008001D10A152AD101B0
:060440008601E729222AD3
:04400E00F22F000786
:00000001FF
