:020000009A293B
:100006008316031398180928000003288312590839
:040016009900080045
:0E001A000030831203138C1A0130F00008002E
:10002800831203131A08F100981C1C2818121816BA
:060038007108F000080051
:0E003E008312031339088A0038088200080074
:10004C008316031398169030831298008316871723
:10005C00071383128C1E35281A08F0002F2808006D
:10006C008312031386010D207008031941281420F4
:0A007C00FF308600422839280800F2
:100086004130831203135502031C4D2837305502A5
:0C009600F000502830305502F000080047
:1000A20083120313D701550884000008D6005608AE
:1000B200003A031966285608D9000320D70A5708C0
:0C00C200550784000008D60058280800EC
:1000CE0083120313560803178D00031355080317E5
:1000DE008F008C018E0183168C170C14000000000B
:1000EE000C1C7A287728831203135508D900032095
:1000FE005608D900032003170E080313D900032056
:0C010E0003170C080313D900032008009D
:10011A0083120313560803178D0003135508031798
:10012A008F000313580803178C000313570803178B
:10013A008E0083168C170C158B1355308D00AA3040
:10014A008D008C14000000008C1CAC28A9288B1789
:10015A00831203135508D90003205608D900032037
:0E016A005708D90003205808D90003200800C8
:1001780083120313D4015308840004300007F000ED
:10018800F1010318F10A7008F300D401730854024E
:100198000318D5285408530784000008F207D40A26
:1001A800CA287209F000700AF1007108F200730899
:1001B80053078400710800060130031D0030F00069
:0801C8007008D400F2010800E8
:1001D00083120313D30136207008D5004320700822
:1001E000D300D30D5310D30D5310D30D5310D30D93
:1001F000531036207008D50043205308F0077008CC
:08020000D300FF308600080066
:1002080083120313D401FF3086002530D500512016
:10021800D401530884000008540203186C290230E2
:10022800FC004B30FD00FD0B1729FC0B1729530A66
:1002380084000008D5000230530784000008D60067
:1002480005305407F000F1010318F10A700853074C
:1002580084000008D70004305407F000F1010318A7
:10026800F10A7008530784000008D8008D20530A4B
:1002780084000008D5000230530784000008D60027
:1002880067200230530784000008FF3A031D5629EF
:10029800530AF10071088400000AF0007108840014
:1002A8007008800002305307F10071088400000ACA
:1002B800F00071088400700880000230FC004B30A8
:1002C800FD00FD0B6529FC0B65290230D4070D29BB
:0402D800D401080045
:1002DC008316031789018601FF30831203138600EE
:1002EC00193083169900181526200630FB001330A0
:1002FC00FC00AD30FD00FD0B8129FC0B8129FB0BB3
:10030C0081290000000086012930D5005120080009
:10031C001F208A110A128000840AB80A0319B90A2C
:08032C00F003031D8E290800F7
:10033400423083120313A0004130A1004430A200D4
:100344000A30A300A4014F30A5004B30A6000A30A8
:10035400A700A8014D30A9007230AA004230AB00BA
:100364007530AC007230AD006E30AE006530AF0059
:100374007230B0002030B1005230B2006530B300AA
:100384006130B4006430B5007930B600B701BB0108
:10039400BC01BD01BE01BF01C001C101C201C30155
:1003A400C401C501C601C701C801C901CA01CB0105
:1003B400CC01CD01CE01CF01D001D1016E210D20A0
:1003C400700803191B2A362070083A3A031D1B2AA9
:1003D400E8207008BB0005307007D0000130D10060
:1003E400500851020318002A51083B3ED200E8206D
:1003F4005208840070088000D10AF2293B30D300EF
:10040400BC20700803190A2A3B30D30004210D2AAA
:100414002030D5005120D101D101500851020318D8
:10042400192A51083B3E84008001D10A0F2AD101C8
:060434008601E1291C2AEB
:04400E00F22F000786
:00000001FF
