:02000000A32932
:1000060083160313981809280000032883125C0836
:040016009900080045
:10001A0083120313DB01590884000008DA005A0826
:10002A00003A031922285A08DC000320DB0A5B087D
:0C003A00590784000008DA0014280800B0
:0E0046000030831203138C1A0130F000080002
:10005400831203131A08F100981C32281812181678
:060064007108F000080025
:10006A0083120313550803178F0003135608031747
:10007A008D000313570803178E000313580803173C
:10008A008C000F080313DC00032003170D08031369
:10009A00DC00032003170E080313DC0003200317F8
:1000AA000C080313DC000320831603178C170C15A6
:1000BA008B1355308D00AA308D008C14000000007F
:0A00CA008C1C682865288B170800BD
:1000D400831603139816903083129800831687179B
:1000E400071383128C1E79281A08F000732808005D
:0E00F4008312031339088A00380882000800BE
:100102004130831203135502031C8B2837305502EA
:0C011200F0008E2830305502F00008008C
:10011E008312031386012320700803199A282A20BC
:0A012E00FF3086009B28922808008D
:1001380083120313D701D801550803178F0003133F
:10014800560803178D008E018C010F080313DC007D
:10015800032003170D080313DC000320831603177D
:100168008C170C14000000000C1CBB28B828831244
:100178000E080313D70003170C080313D8005730D1
:06018800D9000D20080063
:10018E0083120313D3018F207008D50081207008CD
:10019E00D300D30D5310D30D5310D30D5310D30DD5
:1001AE0053108F207008D50081205308F007700877
:0801BE00D300FF3086000800A9
:1001C60083120313D401FF3086003430D9000D208A
:1001D600D401530884000008540203184929033047
:1001E600FD00FD0BF428530A84000008D5000230F8
:1001F600530784000008D60005305407F000F101CB
:100206000318F10A7008530784000008D700043069
:100216005407F000F1010318F10A7008530784002F
:100226000008D80035200330FD00FD0B1829831285
:100236000313530A84000008D500023053078400D4
:100246000008D6009C200330FD00FD0B2829023053
:10025600530784000008FF3A031D3B29530AF100A7
:1002660071088400000AF00071088400700880009C
:1002760002305307F10071088400000AF00071088B
:100286008400700880000230D407EC28D4010800EE
:1002960083120313D4015308840004300007F000CE
:1002A600F1010318F10A7008F300D401730854022F
:1002B600031864295408530784000008F207D40A77
:1002C60059297209F000700AF1007108F2007308EA
:1002D60053078400710800060130031D0030F0004A
:0802E6007008D400F2010800C9
:1002EE008316031789018601FF30831203138600DC
:1002FE0019308316990018156A200630FB0013304A
:10030E00FC00AD30FD00FD0B8A29FC0B8A29FB0B8E
:10031E008A290000000086012030D9000D20080037
:10032E007A208A110A128000840AB80A0319B90ABF
:08033E00F003031D97290800DC
:100346004D3083120313A0007230A1004230A20088
:100356007530A3007230A4006E30A5006530A6008B
:100366007230A7002030A8005230A9006530AA00DC
:100376006130AB006430AC007930AD00AE01423084
:10038600AF004130B0004430B1000A30B200B301D2
:100396004F30B4004B30B5000A30B600B701BB0190
:1003A600BC01BD01BE01BF01C001C101C201C30143
:1003B600C401C501C601C701C801C901CA01CB01F3
:1003C600CC01CD01CE01CF01D001D101772123206F
:1003D60070080319242A8F2070083A3A031D242A2C
:1003E600C7207008BB0005307007D0000130D1006F
:1003F600500851020318092A51083B3ED200C72073
:100406005208840070088000D10AFB293B30D300D3
:100416004B2170080319132A3B30D300E320162A18
:100426002F30D9000D20D101D1011530510203180A
:10043600222A51083B3E84008001D10A182AD101A4
:060446008601EA29252AC7
:04400E00F22F000786
:00000001FF
