:0200000086294F
:1000060083160313981809280000032883125B0837
:040016009900080045
:0E001A000030831203138C1A0130F00008002E
:10002800831203131A08F100981C1C2818121816BA
:060038007108F000080051
:0E003E008312031339088A0038088200080074
:10004C0083120313D901570884000008D8005808FC
:10005C00003A03193B285808DB000320D90A590839
:0C006C00570784000008D8002D28080069
:1000780083120313580803178D0003135708031737
:100088008F0003135A0803178C000313590803172A
:100098008E0083168C170C158B1355308D00AA30E3
:1000A8008D008C14000000008C1C5B2858288B17CE
:0200B80008003E
:1000BA0083160313981690308312980083168717B5
:1000CA00071383128C1E6C281A08F0006628080091
:1000DA008312031386010D2070080319782814204F
:0A00EA00FF30860079287028080016
:1000F4004130831203135702031C842837305702FC
:0C010400F000872830305702F00008009F
:1001100083120313D4015308840004300007F00055
:10012000F1010318F10A7008F300D40173085402B6
:100130000318A1285408530784000008F207D40AC2
:1001400096287209F000700AF1007108F200730835
:1001500053078400710800060130031D0030F000D1
:080160007008D400F201080050
:1001680083120313D3016D207008D7007A2070081A
:10017800D300D30D5310D30D5310D30D5310D30DFB
:1001880053106D207008D7007A205308F0077008C4
:08019800D300FF3086000800CF
:1001A00083120313D601530A84000008F3000230BF
:1001B0005307F5007308F100F0017508840000088A
:1001C0007004F3007108F4000030F4047308F000C8
:1001D0007408F100F10CF00CF1137008D4007108F0
:1001E000D5007508840070088000530A8400550803
:1001F000F000F10170088000FF308600D60153083E
:10020000840000085602031856290230FC004B30C7
:10021000FD00FD0B0929FC0B0929530A8400000885
:10022000D7000230530784000008D8000530560775
:10023000F000F1010318F10A700853078400000868
:10024000D90004305607F000F1010318F10A7008D4
:10025000530784000008DA003C20023083120313A5
:10026000530784000008FF3A031D4029530AF10098
:1002700071088400000AF000710884007008800092
:1002800002305307F10071088400000AF000710881
:100290008400700880000230FC004B30FD00FD0B34
:1002A0004F29FC0B4F290230D607FF282530D700F5
:0402B00026200800FC
:1002B4001F208A110A128000840AB80A0319B90A95
:0802C400F003031D5A29080094
:1002CC008316031789018601FF30831203138600FE
:1002DC0019308316990018155D200630FB00133079
:1002EC00FC00AD30FD00FD0B7929FC0B7929FB0BD3
:1002FC0079290000000086012930D700262008004B
:10030C00423083120313A0004130A1004430A200FC
:10031C000A30A300A4014F30A5004B30A6000A30D0
:10032C00A700A8014D30A9007230AA004230AB00E2
:10033C007530AC007230AD006E30AE006530AF0081
:10034C007230B0002030B1005230B2006530B300D2
:10035C006130B4006430B5007930B600B701BB0130
:10036C00BC01BD01BE01BF01C001C101C201C3017D
:10037C00C401C501C601C701C801C901CA01CB012D
:10038C00CC01CD01CE01CF01D001D10166210D20D0
:10039C0070080319FA296D2070083A3A031DFA29DE
:1003AC00B4207008BB0005307007D0000130D100BC
:1003BC00500851020318EC2951083B3ED200B420DE
:1003CC005208840070088000D10ADE293B30D3002B
:1003DC00882070080319F6293B30D300D020F92966
:0C03EC002030D70026208601CD29FB29F7
:04400E00F22F000786
:00000001FF
