:100200005408D9005508DA005808013EF000F10101
:100210000318F10A7008530784000008DB0058082F
:10022000530784000008DC002620831203135508BE
:10023000FF3A031D1C29D40AD50A0D30FC00FB30FF
:10024000FD00FD0B2129FC0B2129000000000230DC
:0202590000297A
:10025C001F208A110A128000840AB80A0319B90AED
:08026C00F003031D2E29080018
:100274008316031789018601FF3083120313860056
:1002840019308316990018155D200630FB001330D1
:10029400FC00AD30FD00FD0B4D29FC0B4D29FB0B83
:1002A4004D290000000086012930D90047200800AC
:10040000423083120313A0004130A1004430A20007
:100410000A30A300A4014F30A5004B30A6000A30DB
:10042000A700A8014D30A9007230AA004230AB00ED
:100430007530AC007230AD006E30AE006530AF008C
:100440007230B0002030B1005230B2006530B300DD
:100450006130B4006430B5007930B600B701BB013B
:10046000BC01BD01BE01BF01C001C101C201C30188
:10047000C401C501C601C701C801C901CA01CB0138
:10048000CC01CD01CE01CF01D001D1013A210D2007
:1004900070080319742A6D2070083A3A031D742AF3
:1004A000B4207008BB0005307007D0000130D100C7
:1004B000500851020318662A51083B3ED200B4206E
:1004C0005208840070088000D10A582A3B30D300BB
:1004D000882070080319702A3B30D300D020732A7B
:0C04E0002030D90047208601472A752AE9
:00000001FF
